{
  "contractName": "CryptoPotsController",
  "abi": [
    {
      "inputs": [],
      "stateMutability": "nonpayable",
      "type": "constructor"
    },
    {
      "anonymous": false,
      "inputs": [
        {
          "indexed": false,
          "internalType": "uint256",
          "name": "potID",
          "type": "uint256"
        },
        {
          "indexed": false,
          "internalType": "address",
          "name": "who",
          "type": "address"
        },
        {
          "indexed": false,
          "internalType": "uint256",
          "name": "amount",
          "type": "uint256"
        },
        {
          "indexed": false,
          "internalType": "uint256",
          "name": "aggregatedAmount",
          "type": "uint256"
        }
      ],
      "name": "BetLog",
      "type": "event"
    },
    {
      "anonymous": false,
      "inputs": [
        {
          "indexed": false,
          "internalType": "uint256",
          "name": "potID",
          "type": "uint256"
        },
        {
          "indexed": false,
          "internalType": "address",
          "name": "who",
          "type": "address"
        },
        {
          "indexed": false,
          "internalType": "uint256",
          "name": "amount",
          "type": "uint256"
        },
        {
          "indexed": false,
          "internalType": "string",
          "name": "data",
          "type": "string"
        }
      ],
      "name": "PayoutLog",
      "type": "event"
    },
    {
      "anonymous": false,
      "inputs": [
        {
          "indexed": false,
          "internalType": "uint256",
          "name": "id",
          "type": "uint256"
        },
        {
          "indexed": false,
          "internalType": "address payable",
          "name": "creator",
          "type": "address"
        }
      ],
      "name": "newPotCreated",
      "type": "event"
    },
    {
      "inputs": [
        {
          "internalType": "uint32",
          "name": "duration",
          "type": "uint32"
        },
        {
          "internalType": "uint32",
          "name": "fee",
          "type": "uint32"
        }
      ],
      "name": "createPot",
      "outputs": [
        {
          "internalType": "uint256",
          "name": "",
          "type": "uint256"
        }
      ],
      "stateMutability": "nonpayable",
      "type": "function"
    },
    {
      "inputs": [
        {
          "internalType": "address",
          "name": "creator",
          "type": "address"
        }
      ],
      "name": "getCreatorPots",
      "outputs": [
        {
          "internalType": "uint256[]",
          "name": "",
          "type": "uint256[]"
        }
      ],
      "stateMutability": "view",
      "type": "function",
      "constant": true
    },
    {
      "inputs": [],
      "name": "getPersonalPots",
      "outputs": [
        {
          "internalType": "uint256[]",
          "name": "",
          "type": "uint256[]"
        }
      ],
      "stateMutability": "view",
      "type": "function",
      "constant": true
    },
    {
      "inputs": [],
      "name": "getActivePotsIDs",
      "outputs": [
        {
          "internalType": "uint256[]",
          "name": "",
          "type": "uint256[]"
        }
      ],
      "stateMutability": "view",
      "type": "function",
      "constant": true
    },
    {
      "inputs": [
        {
          "internalType": "uint256",
          "name": "potID",
          "type": "uint256"
        }
      ],
      "name": "getPotVolume",
      "outputs": [
        {
          "internalType": "uint256",
          "name": "",
          "type": "uint256"
        }
      ],
      "stateMutability": "view",
      "type": "function",
      "constant": true
    },
    {
      "inputs": [
        {
          "internalType": "uint256",
          "name": "potID",
          "type": "uint256"
        }
      ],
      "name": "calculateWinner",
      "outputs": [],
      "stateMutability": "nonpayable",
      "type": "function"
    },
    {
      "inputs": [
        {
          "internalType": "uint256",
          "name": "potID",
          "type": "uint256"
        }
      ],
      "name": "makeBet",
      "outputs": [],
      "stateMutability": "payable",
      "type": "function",
      "payable": true
    },
    {
      "inputs": [
        {
          "internalType": "uint256",
          "name": "potID",
          "type": "uint256"
        }
      ],
      "name": "isPotStarted",
      "outputs": [
        {
          "internalType": "bool",
          "name": "",
          "type": "bool"
        }
      ],
      "stateMutability": "view",
      "type": "function",
      "constant": true
    },
    {
      "inputs": [
        {
          "internalType": "uint256",
          "name": "potID",
          "type": "uint256"
        }
      ],
      "name": "remainingBlocks",
      "outputs": [
        {
          "internalType": "int256",
          "name": "",
          "type": "int256"
        }
      ],
      "stateMutability": "view",
      "type": "function",
      "constant": true
    },
    {
      "inputs": [
        {
          "internalType": "uint256",
          "name": "potID",
          "type": "uint256"
        }
      ],
      "name": "isPotFinished",
      "outputs": [
        {
          "internalType": "bool",
          "name": "",
          "type": "bool"
        }
      ],
      "stateMutability": "view",
      "type": "function",
      "constant": true
    },
    {
      "inputs": [
        {
          "internalType": "uint256",
          "name": "potID",
          "type": "uint256"
        }
      ],
      "name": "getParticipants",
      "outputs": [
        {
          "internalType": "address[]",
          "name": "",
          "type": "address[]"
        }
      ],
      "stateMutability": "view",
      "type": "function",
      "constant": true
    },
    {
      "inputs": [
        {
          "internalType": "uint256",
          "name": "potID",
          "type": "uint256"
        },
        {
          "internalType": "address",
          "name": "participant",
          "type": "address"
        }
      ],
      "name": "getParticipantBet",
      "outputs": [
        {
          "internalType": "uint256",
          "name": "",
          "type": "uint256"
        }
      ],
      "stateMutability": "view",
      "type": "function",
      "constant": true
    },
    {
      "inputs": [
        {
          "internalType": "uint256",
          "name": "potID",
          "type": "uint256"
        }
      ],
      "name": "getPotDuration",
      "outputs": [
        {
          "internalType": "uint32",
          "name": "",
          "type": "uint32"
        }
      ],
      "stateMutability": "view",
      "type": "function",
      "constant": true
    },
    {
      "inputs": [
        {
          "internalType": "uint256",
          "name": "potID",
          "type": "uint256"
        }
      ],
      "name": "getPotOwner",
      "outputs": [
        {
          "internalType": "address",
          "name": "",
          "type": "address"
        }
      ],
      "stateMutability": "view",
      "type": "function",
      "constant": true
    }
  ],
  "bytecode": "0x608060405234801561001057600080fd5b50600080546001600160a01b031916331781556003556110ae806100356000396000f3fe6080604052600436106100dd5760003560e01c80639bcc94361161007f578063c90b7c5511610059578063c90b7c5514610258578063da1086a014610278578063e5f85d5c14610298578063eb4ea58e146102b8576100dd565b80639bcc9436146101e9578063a288c68114610216578063c1e3bd3e1461022b576100dd565b8063649209e8116100bb578063649209e814610167578063671b49b314610187578063718cc769146101b45780639b12ea22146101c9576100dd565b80630c4892e7146100e2578063225c1b7f14610118578063526de5bd1461013a575b600080fd5b3480156100ee57600080fd5b506101026100fd366004610dd9565b6102d8565b60405161010f9190610e6e565b60405180910390f35b34801561012457600080fd5b5061012d6102f9565b60405161010f9190610ecf565b34801561014657600080fd5b5061015a610155366004610df1565b610309565b60405161010f9190610e65565b34801561017357600080fd5b5061012d610182366004610dbe565b610365565b34801561019357600080fd5b506101a76101a2366004610dd9565b6103d1565b60405161010f9190611067565b6101c76101c2366004610dd9565b6103e9565b005b3480156101d557600080fd5b5061015a6101e4366004610dd9565b610568565b3480156101f557600080fd5b50610209610204366004610dd9565b6105b3565b60405161010f9190610f07565b34801561022257600080fd5b5061012d610609565b34801561023757600080fd5b5061024b610246366004610dd9565b610661565b60405161010f9190610e82565b34801561026457600080fd5b5061015a610273366004610e1d565b6106f4565b34801561028457600080fd5b506101c7610293366004610dd9565b61083b565b3480156102a457600080fd5b506102096102b3366004610dd9565b610a98565b3480156102c457600080fd5b5061015a6102d3366004610dd9565b610ad7565b6000818152600160205260409020600401546001600160a01b03165b919050565b606061030433610365565b905090565b6000826003548111156103375760405162461bcd60e51b815260040161032e90610f12565b60405180910390fd5b505060009182526001602090815260408084206001600160a01b039390931684526005909201905290205490565b6001600160a01b0381166000908152600460209081526040918290208054835181840281018401909452808452606093928301828280156103c557602002820191906000526020600020905b8154815260200190600101908083116103b1575b50505050509050919050565b60009081526001602052604090205463ffffffff1690565b8060035481111561040c5760405162461bcd60e51b815260040161032e90610f12565b610415826105b3565b156104325760405162461bcd60e51b815260040161032e90610f40565b60008281526001602052604081209033903490805b600685015463ffffffff821610156104a457836001600160a01b0316856006018263ffffffff168154811061047857fe5b6000918252602090912001546001600160a01b0316141561049c57600191506104a4565b600101610447565b50806104db57600684018054600181018255600091825260209091200180546001600160a01b0319166001600160a01b0385161790555b6001600160a01b0383166000908152600585016020526040902080548301905560038401805483019055600284015460ff1661051a5761051a86610b13565b7fa0841b6719b3760691bc1909a1f71a44d76daa3f74c4e1504d755efa3fd30b838633346105488a33610309565b6040516105589493929190611043565b60405180910390a1505050505050565b60008160035481111561058d5760405162461bcd60e51b815260040161032e90610f12565b5050600090815260016020819052604090912080549101544363ffffffff909216010390565b6000816003548111156105d85760405162461bcd60e51b815260040161032e90610f12565b60006105e384610568565b13158015610602575060008381526001602052604090206002015460ff165b9392505050565b6060600280548060200260200160405190810160405280929190818152602001828054801561065757602002820191906000526020600020905b815481526020019060010190808311610643575b5050505050905090565b6060816003548111156106865760405162461bcd60e51b815260040161032e90610f12565b600083815260016020908152604091829020600601805483518184028101840190945280845290918301828280156106e757602002820191906000526020600020905b81546001600160a01b031681526001909101906020018083116106c9575b5050505050915050919050565b60038054600190810191829055600280548083019091557f405787fa12a823e0f2b7631cc41b3ba8828b3321ca811111fa75cd3aa3bb5ace018290556000828152602082815260408083206004810180546001600160a01b03191633179055815160608101835263ffffffff808a168252888116828601908152600594830194855288875296909452518154955192518416600160401b026bffffffff0000000000000000199385166401000000000267ffffffff00000000199290951663ffffffff199097169690961716929092171692909217909155906107d681610b5c565b33600081815260046020908152604080832080546001810182559084529190922001839055517f0114bf0e23b5c59209f1b5ab96b242785485cc085a9403bf856b5344f8239f679161082a91849190610f77565b60405180910390a190505b92915050565b8060035481111561085e5760405162461bcd60e51b815260040161032e90610f12565b6000828152600160205260409020600281015460ff1680156108845750610884836105b3565b61088d57600080fd5b600061089884610c12565b82546001600160a01b03821660009081526005850160205260408120546003860154939450909264010000000090920463ffffffff169103816108d757fe5b84549190049150600090600160401b900463ffffffff1682816108f657fe5b60038601546000546040519390920493508385039290859003917ffd98ccf0553ff78fe4f3f10ff0a4f3553a41744bcb15b273c65c8bf767095f9d9161094b918b916001600160a01b03909116908690610fcc565b60405180910390a160048601546040517ffd98ccf0553ff78fe4f3f10ff0a4f3553a41744bcb15b273c65c8bf767095f9d91610994918b916001600160a01b0316908790610f8e565b60405180910390a17ffd98ccf0553ff78fe4f3f10ff0a4f3553a41744bcb15b273c65c8bf767095f9d8886836040516109cf93929190611006565b60405180910390a1600080546040516001600160a01b039091169184156108fc02918591818181858888f19350505050158015610a10573d6000803e3d6000fd5b5060048601546040516001600160a01b039091169084156108fc029085906000818181858888f19350505050158015610a4d573d6000803e3d6000fd5b506040516001600160a01b0386169082156108fc029083906000818181858888f19350505050158015610a84573d6000803e3d6000fd5b50610a8e88610b5c565b5050505050505050565b600081600354811115610abd5760405162461bcd60e51b815260040161032e90610f12565b505060009081526001602052604090206002015460ff1690565b600081600354811115610afc5760405162461bcd60e51b815260040161032e90610f12565b505060009081526001602052604090206003015490565b80600354811115610b365760405162461bcd60e51b815260040161032e90610f12565b50600090815260016020819052604090912060028101805460ff19168317905543910155565b80600354811115610b7f5760405162461bcd60e51b815260040161032e90610f12565b60008281526001602052604081206003810182905560028101805460ff19169055905b600682015463ffffffff82161015610bfe576000826005016000846006018463ffffffff1681548110610bd157fe5b60009182526020808320909101546001600160a01b03168352820192909252604001902055600101610ba2565b50610c0d600682016000610d59565b505050565b600081815260016020526040812081610c32610c2d85610ad7565b610ca8565b90506000805b6006840154811015610c9f576000846006018281548110610c5557fe5b60009182526020808320909101546001600160a01b03168083526005880190915260409091205493909301929050838310610c965794506102f49350505050565b50600101610c38565b50505050919050565b600080434233604051602001610cbe9190610e48565b6040516020818303038152906040528051906020012060001c81610cde57fe5b04454241604051602001610cf29190610e48565b6040516020818303038152906040528051906020012060001c81610d1257fe5b0444420101010101604051602001610d2a9190610e65565b6040516020818303038152906040528051906020012060001c905082838281610d4f57fe5b0402900392915050565b5080546000825590600052602060002090810190610d779190610d7a565b50565b5b80821115610d8f5760008155600101610d7b565b5090565b80356001600160a01b038116811461083557600080fd5b803563ffffffff8116811461083557600080fd5b600060208284031215610dcf578081fd5b6106028383610d93565b600060208284031215610dea578081fd5b5035919050565b60008060408385031215610e03578081fd5b82359150610e148460208501610d93565b90509250929050565b60008060408385031215610e2f578182fd5b610e398484610daa565b9150610e148460208501610daa565b60609190911b6bffffffffffffffffffffffff1916815260140190565b90815260200190565b6001600160a01b0391909116815260200190565b6020808252825182820181905260009190848201906040850190845b81811015610ec35783516001600160a01b031683529284019291840191600101610e9e565b50909695505050505050565b6020808252825182820181905260009190848201906040850190845b81811015610ec357835183529284019291840191600101610eeb565b901515815260200190565b6020808252601490820152731c1bdd125108191bd95cc81b9bdd08195e1a5cdd60621b604082015260600190565b60208082526017908201527f506f7420697320616c72656164792066696e6973686564000000000000000000604082015260600190565b9182526001600160a01b0316602082015260400190565b9283526001600160a01b0391909116602083015260408201526080606082018190526007908201526631b932b0ba37b960c91b60a082015260c00190565b9283526001600160a01b039190911660208301526040820152608060608201819052600390820152623232bb60e91b60a082015260c00190565b9283526001600160a01b039190911660208301526040820152608060608201819052600690820152653bb4b73732b960d11b60a082015260c00190565b9384526001600160a01b039290921660208401526040830152606082015260800190565b63ffffffff9190911681526020019056fea2646970667358221220431018f3118661a543541ed27e5411b087fd245213637034536e1884a1e991cd64736f6c63430007000033",
  "immutableReferences": {},
  "source": "// SPDX-License-Identifier: UNLICENSED\r\npragma solidity ^0.7.0;\r\npragma experimental ABIEncoderV2;\r\n\r\nimport \"./CryptoPotsBase.sol\";\r\n\r\n/// @notice This contract is controlling the creation of pots.\r\ncontract CryptoPotsController is CryptoPotsBase {\r\n    struct Settings {\r\n        // Duration: how much blocks will a pot game exist\r\n        uint32 duration;\r\n        // The amount of total fee from pot win\r\n        // 5 means 1/5 part of the winning stake \r\n        // (Excluding the amount of the winners bet)\r\n        uint32 devFee;\r\n        // The part that will go to the creator.\r\n        // 4 means 1/4 of the total fee wil go to developer.\r\n        uint32 creatorFee;\r\n    }\r\n\r\n    struct Pot {\r\n        Settings settings;\r\n        // A block from where the last game started\r\n        uint256 blockStart;\r\n        // Is the game started?\r\n        bool started;\r\n        uint256 balance;\r\n\r\n        // Creator address to pay creator fee\r\n        address payable creator;\r\n\r\n        // Current bets in volume\r\n        mapping(address => uint256) bets;\r\n        // bets keys, list af all current participants.\r\n        address[] participants;\r\n    }\r\n\r\n    // Each pot will have a uint256 id\r\n    mapping(uint256 => Pot) pots;\r\n    // Storing available pots for playing, a.k.a. dict keys\r\n    uint256[] activePotsList;\r\n    // Last id of created pot\r\n    uint256 lastPotID;\r\n    uint32 constant CREATOR_FEE = 5;\r\n\r\n    // Lists of creators PotIDs\r\n    mapping(address => uint256[]) creatorPots;\r\n\r\n    event newPotCreated(uint256 id, address payable creator);\r\n\r\n    // Everyone can create a pot.\r\n    // Will return an id for a pot and a new smart contract address\r\n    function createPot(uint32 duration, uint32 fee) public returns (uint256) {\r\n        lastPotID++;\r\n        uint256 newPotID = lastPotID;\r\n\r\n        activePotsList.push(newPotID);\r\n\r\n        pots[newPotID].creator = msg.sender;\r\n        pots[newPotID].settings = Settings(duration, fee, CREATOR_FEE);\r\n        reset(newPotID);\r\n\r\n        creatorPots[msg.sender].push(newPotID);\r\n\r\n        emit newPotCreated(newPotID, msg.sender);\r\n        return (newPotID);\r\n    }\r\n\r\n    // Get pot ids, created by creator\r\n    function getCreatorPots(address creator)\r\n        public\r\n        view\r\n        returns (uint256[] memory)\r\n    {\r\n        return creatorPots[creator];\r\n    }\r\n\r\n    // Get personal created pot ids\r\n    function getPersonalPots() public view returns (uint256[] memory) {\r\n        return getCreatorPots(msg.sender);\r\n    }\r\n\r\n    // Get the list of active pots\r\n    // The same as getting activePotsList\r\n    function getActivePotsIDs() public view returns (uint256[] memory) {\r\n        return activePotsList;\r\n    }\r\n\r\n    constructor() CryptoPotsBase() {\r\n        lastPotID = 0;\r\n    }\r\n\r\n    // This modifier will translate the actions on the sub contract\r\n    modifier potWrapper(uint256 potID) {\r\n        require(potID <= lastPotID, \"potID does not exist\");\r\n        _;\r\n    }\r\n\r\n    // Get the amount of weis in a pot\r\n    function getPotVolume(uint256 potID) \r\n        public \r\n        view \r\n        potWrapper(potID) \r\n        returns (uint256) \r\n    {\r\n        return pots[potID].balance;\r\n    }\r\n\r\n    event PayoutLog(\r\n        uint256 potID,\r\n        address who,\r\n        uint256 amount,\r\n        string data\r\n    );\r\n    \r\n    // This function will decide a winner when the pot is finished\r\n    // TODO: add some rewards for spending money on calculating winners\r\n    function calculateWinner(uint256 potID) \r\n        public  \r\n        potWrapper(potID)\r\n    {\r\n        Pot storage pot = pots[potID];\r\n        require(pot.started && isPotFinished(potID));\r\n\r\n        address payable winner = getWinner(potID);\r\n        uint256 fee = (pot.balance - pot.bets[winner]) / pot.settings.devFee;\r\n        uint256 creatorFee = fee / pot.settings.creatorFee;\r\n        uint256 devFee = fee - creatorFee;\r\n        uint256 winAmount = pot.balance - fee;\r\n\r\n        emit PayoutLog(potID, developer, devFee, \"dev\");\r\n        emit PayoutLog(potID, pot.creator, creatorFee, \"creator\");\r\n        emit PayoutLog(potID, winner, winAmount, \"winner\");\r\n\r\n        developer.transfer(devFee);\r\n        pot.creator.transfer(creatorFee);\r\n        winner.transfer(winAmount);\r\n\r\n        reset(potID);\r\n    }\r\n\r\n    event BetLog(\r\n        uint256 potID, \r\n        address who, \r\n        uint256 amount,\r\n        uint256 aggregatedAmount\r\n    );\r\n\r\n    // Make a bet in a pot\r\n    // If the game has not started, will start the game\r\n    // If the game has finished, will automatically calculate the winner of prev one\r\n    // and then place a bet in a new one\r\n    function makeBet(uint256 potID)\r\n        public \r\n        payable \r\n        potWrapper(potID)\r\n    {\r\n        require(!isPotFinished(potID), \"Pot is already finished\");\r\n        Pot storage pot = pots[potID];\r\n        address player = msg.sender;\r\n        uint256 amount = msg.value;\r\n        bool isParticipant = false;\r\n        for (uint32 i = 0; i < pot.participants.length; i++) {\r\n            if (pot.participants[i] == player) {\r\n                isParticipant = true;\r\n                break;\r\n            }\r\n        }\r\n        if (!isParticipant) pot.participants.push(player);\r\n\r\n        pot.bets[player] += amount;\r\n        pot.balance += amount;\r\n\r\n        if (!pot.started) startPot(potID);\r\n        emit BetLog(potID, msg.sender, msg.value, getParticipantBet(potID, msg.sender));\r\n    }\r\n\r\n    // bool: is started or not\r\n    function isPotStarted(uint256 potID) \r\n        public \r\n        view \r\n        potWrapper(potID) \r\n        returns (bool) \r\n    {\r\n        return pots[potID].started;\r\n    }\r\n\r\n    // The amount of blocks remaining for this game\r\n    function remainingBlocks(uint256 potID) \r\n        public \r\n        view \r\n        potWrapper(potID) \r\n        returns (int256) \r\n    {\r\n        return int256(pots[potID].blockStart + pots[potID].settings.duration) - int256(block.number);\r\n    }\r\n\r\n    // bool: is finished or not\r\n    function isPotFinished(uint256 potID)\r\n        public \r\n        view \r\n        potWrapper(potID) \r\n        returns (bool) \r\n    {\r\n        return remainingBlocks(potID) <= 0 && pots[potID].started;\r\n    }\r\n\r\n    // Get participants list\r\n    function getParticipants(uint256 potID) \r\n        public \r\n        view \r\n        potWrapper(potID) \r\n        returns (address[] memory) \r\n    {\r\n        return pots[potID].participants;\r\n    }\r\n\r\n    // Get a bet of particular player\r\n    function getParticipantBet(uint256 potID, address participant)\r\n        public\r\n        view\r\n        potWrapper(potID)\r\n        returns (uint256)\r\n    {\r\n        return pots[potID].bets[participant];\r\n    }\r\n\r\n    function getPotDuration(uint256 potID) public view returns (uint32){\r\n        return pots[potID].settings.duration;\r\n    }\r\n\r\n    function getPotOwner(uint256 potID) public view returns (address){\r\n        return pots[potID].creator;\r\n    }\r\n\r\n    function reset(uint256 potID) private potWrapper(potID){\r\n        Pot storage pot = pots[potID];\r\n        pot.balance = 0;\r\n        pot.started = false;\r\n\r\n        for (uint32 i = 0; i < pot.participants.length; i++) {\r\n            pot.bets[pot.participants[i]] = 0;\r\n        }\r\n        delete pot.participants;\r\n    }\r\n\r\n    function startPot(uint256 potID) private potWrapper(potID){\r\n        Pot storage pot = pots[potID];\r\n        pot.started = true;\r\n        pot.blockStart = block.number;\r\n    }\r\n\r\n        // Returns a pseudo-random winner.\r\n    function getWinner(uint256 potID) private view returns (address payable) {\r\n        Pot storage pot = pots[potID];\r\n        uint256 winningNumber = randInt(getPotVolume(potID));\r\n        uint256 currentSum = 0;\r\n\r\n        for (uint256 i = 0; i < pot.participants.length; i++) {\r\n            address payable participant = payable(pot.participants[i]);\r\n            currentSum += pot.bets[participant];\r\n            if (currentSum >= winningNumber) {\r\n                return participant;\r\n            }\r\n        }\r\n\r\n        // The code should not be here\r\n    }\r\n\r\n    /// @return a random uint256 from 0 to last\r\n    // TODO: change a random function to make it less vulnerable\r\n    function randInt(uint256 last) private view returns (uint256) {\r\n        uint256 seed = uint256(\r\n            keccak256(\r\n                abi.encodePacked(\r\n                    block.timestamp +\r\n                        block.difficulty +\r\n                        ((\r\n                            uint256(keccak256(abi.encodePacked(block.coinbase)))\r\n                        ) / (block.timestamp)) +\r\n                        block.gaslimit +\r\n                        ((uint256(keccak256(abi.encodePacked(msg.sender)))) /\r\n                            (block.timestamp)) +\r\n                        block.number\r\n                )\r\n            )\r\n        );\r\n\r\n        return seed - ((seed / last) * last);\r\n    }\r\n}",
  "sourcePath": "C:/Users/blackbox1/Documents/GitHub/CryptoPots/contracts/PotController.sol",
  "compiler": {
    "name": "solc",
    "version": "0.7.0+commit.9e61f92b.Emscripten.clang"
  },
  "schemaVersion": "3.3.0",
  "updatedAt": "2020-10-13T13:20:43.922Z",
  "networkType": "ethereum",
  "devdoc": {
    "kind": "dev",
    "methods": {},
    "version": 1
  },
  "userdoc": {
    "kind": "user",
    "methods": {},
    "notice": "This contract is controlling the creation of pots.",
    "version": 1
  }
}